:1000000012C021C020C01FC01EC01DC01CC01BC00C
:100010001AC019C018C017C016C015C014C013C02C
:1000200012C011C010C011241FBECFE5D4E0DEBF46
:10003000CDBF10E0A0E6B0E001C01D92A636B1072A
:10004000E1F7A1D0D0C0DCCF4F925F926F927F9248
:100050008F929F92AF92BF92CF92DF92EF92FF92D8
:100060000F931F93CF93DF936C01EB01EE24FF24DA
:10007000602E7724842E992401E010E0A22EBB2468
:1000800089E1482E512CC3010E2C02C0959587950D
:100090000A94E2F780FF5EC0C701880D991D8ED0DB
:1000A000813049F0813008F446C08230A9F08330B5
:1000B00009F041C028C0F6013081C8010E2C02C0F1
:1000C000880F991F0A94E2F7282F20952323208375
:1000D0002881822B88833EC0F601808198010E2CF6
:1000E00002C0220F331F0A94E2F7822B8083C501DE
:1000F0000E2C02C0959587950A94E2F780FF18C0F0
:100100008881282B26C0F601808198010E2C02C020
:10011000220F331F0A94E2F7822B80838881822B7F
:10012000888388EB9BE0F2013197F1F70197D9F7CB
:10013000888120950DC0F601808198010E2C02C0A7
:10014000220F331F0A94E2F720958223808388814F
:10015000282328830894E11CF11CF8E0EF16F10431
:1001600009F091CFDF91CF911F910F91FF90EF9008
:10017000DF90CF90BF90AF909F908F907F906F90C7
:100180005F904F9008950F93CF93DF9380E681BBEC
:1001900085E490E063E01AD0C9E1D0E081E390E02B
:1001A00062E370E040E420E60FEF4EDF80E197E28B
:1001B000FE013197F1F70197D9F7F0CFE199FECF22
:1001C0009FBB8EBBE09A99278DB30895262FE199A6
:1001D000FECF9FBB8EBB2DBB0FB6F894E29AE19A7F
:0A01E0000FBE01960895F894FFCFBA
:00000001FF
